{
  "transactions": [
    {
      "hash": "0x0c1304d5ce8a9b4285b1f3cff04df841a85c885d77a3ff78e22657b237515311",
      "transactionType": "CALL",
      "contractName": "BasicNFT",
      "contractAddress": "0x38683d894741451A71Ef0A6Ef9d68Fd36db91385",
      "function": "mintNft(string)",
      "arguments": [
        "\"ipfs://QmPh5YY9cEdVbGEUNCwqhRBXHQ2MGJdLCdGN5jcQLDLJMQ?filename=0-st-bernard.json\""
      ],
      "transaction": {
        "type": "0x02",
        "from": "0x5fa769922a6428758fb44453815e2c436c57c3c7",
        "to": "0x38683d894741451a71ef0a6ef9d68fd36db91385",
        "gas": "0x40f6f",
        "value": "0x0",
        "data": "0xda86f4a900000000000000000000000000000000000000000000000000000000000000200000000000000000000000000000000000000000000000000000000000000050697066733a2f2f516d50683559593963456456624745554e437771685242584851324d474a644c4364474e356a63514c444c4a4d513f66696c656e616d653d302d73742d6265726e6172642e6a736f6e00000000000000000000000000000000",
        "nonce": "0xb6a",
        "accessList": []
      },
      "additionalContracts": [],
      "isFixedGasLimit": false
    }
  ],
  "receipts": [
    {
      "transactionHash": "0x0c1304d5ce8a9b4285b1f3cff04df841a85c885d77a3ff78e22657b237515311",
      "transactionIndex": "0x3",
      "blockHash": "0xda6e5bd945d6308636d0a3b1c8da67675f966c83116a7e7fbf28613772e9af28",
      "blockNumber": "0x2a43aa1",
      "from": "0x5FA769922a6428758fb44453815e2c436c57C3c7",
      "to": "0x38683d894741451A71Ef0A6Ef9d68Fd36db91385",
      "cumulativeGasUsed": "0xc203a",
      "gasUsed": "0x2c6ba",
      "contractAddress": null,
      "logs": [
        {
          "address": "0x38683d894741451A71Ef0A6Ef9d68Fd36db91385",
          "topics": [
            "0xddf252ad1be2c89b69c2b068fc378daa952ba7f163c4a11628f55a4df523b3ef",
            "0x0000000000000000000000000000000000000000000000000000000000000000",
            "0x0000000000000000000000005fa769922a6428758fb44453815e2c436c57c3c7",
            "0x0000000000000000000000000000000000000000000000000000000000000000"
          ],
          "data": "0x",
          "blockHash": "0xda6e5bd945d6308636d0a3b1c8da67675f966c83116a7e7fbf28613772e9af28",
          "blockNumber": "0x2a43aa1",
          "transactionHash": "0x0c1304d5ce8a9b4285b1f3cff04df841a85c885d77a3ff78e22657b237515311",
          "transactionIndex": "0x3",
          "logIndex": "0x7",
          "removed": false
        },
        {
          "address": "0x0000000000000000000000000000000000001010",
          "topics": [
            "0x4dfe1bbbcf077ddc3e01291eea2d5c70c2b422b415d95645b9adcfd678cb1d63",
            "0x0000000000000000000000000000000000000000000000000000000000001010",
            "0x0000000000000000000000005fa769922a6428758fb44453815e2c436c57c3c7",
            "0x0000000000000000000000005082f249cdb2f2c1ee035e4f423c46ea2dab3ab1"
          ],
          "data": "0x0000000000000000000000000000000000000000000000000013645e20ed6a8c0000000000000000000000000000000000000000000000005f3e62f07bdd8f350000000000000000000000000000000000000000000004d0b001367400d034520000000000000000000000000000000000000000000000005f2afe925af024a90000000000000000000000000000000000000000000004d0b0149ad221bd9ede",
          "blockHash": "0xda6e5bd945d6308636d0a3b1c8da67675f966c83116a7e7fbf28613772e9af28",
          "blockNumber": "0x2a43aa1",
          "transactionHash": "0x0c1304d5ce8a9b4285b1f3cff04df841a85c885d77a3ff78e22657b237515311",
          "transactionIndex": "0x3",
          "logIndex": "0x8",
          "removed": false
        }
      ],
      "status": "0x1",
      "logsBloom": "0x00000000000000000000000800020000000000000000000000000000020000000000000002000000000000000800000004008000000000000000000000000000000000000000000000000008000000800000000000000000000100000000000000000000020000000000000000000800000000000000000080000010000000000000000000000000000000000000000000000000000000000000000000000000200000000000000000000000000000000000000000000000000000000000004000000002000000000001000000000000000000000000020000100000000220000000000000000080000000000000000000000000000000000000000000100000",
      "type": "0x2",
      "effectiveGasPrice": "0x6fc23ac0e"
    }
  ],
  "libraries": [],
  "pending": [],
  "returns": {},
  "timestamp": 1704223687,
  "chain": 80001,
  "multi": false,
  "commit": "2b78680"
}